:100000000C9434000C9451000C9451000C94510049
:100010000C9451000C9451000C9451000C9451001C
:100020000C9451000C9451000C9451000C9451000C
:100030000C9451000C9451000C9451000C945100FC
:100040000C9451000C9451000C94C5000C94510078
:100050000C9451000C9451000C9451000C945100DC
:100060000C9451000C94510011241FBECFEFD8E026
:10007000DEBFCDBF11E0A0E0B1E0E2E9F9E002C0EF
:1000800005900D92AE3BB107D9F721E0AEEBB1E0A0
:1000900001C01D92A53CB207E1F70E949F000C949D
:1000A000C7040C940000CF93DF93CDB7DEB785EC87
:1000B00090E0FC01108284EC90E027E6FC012083B4
:1000C00080EC90E0FC01208180EC90E02D7FFC0131
:1000D000208381EC90E0FC01208181EC90E0286994
:1000E000FC01208382EC90E0FC01208182EC90E016
:1000F0002660FC0120830000DF91CF910895CF930B
:10010000DF9300D00F92CDB7DEB789837B836A83FC
:1001100080EC90E0FC018081882F90E0807299272C
:10012000892BB1F386EC90E02981FC01208380E0EB
:1001300090E00F900F900F90DF91CF910895CF93A3
:10014000DF93CDB7DEB72E970FB6F894DEBF0FBEA4
:10015000CDBF2EE0CE010196FC01322F11923A95CF
:10016000E9F782E08C838FE790E09A8789870E9485
:100170005300CE0101969093C2018093C1017894FF
:1001800084E091E00E942502FFCF1F920F920FB6EC
:100190000F9211242F933F934F935F936F937F930D
:1001A0008F939F93AF93BF93EF93FF93CF93DF937F
:1001B0000F92CDB7DEB786EC90E0FC018081898399
:1001C0008981882F90E0292F2F938F938EE091E0E3
:1001D000892F8F938EE091E08F930E940F020F90F2
:1001E0000F900F900F908091BE01882309F0D2C02C
:1001F0008981881F8827881F809300018981882F23
:1002000090E0959587959595879595958795959582
:1002100087958770809301018981882F90E095955B
:10022000879595958795959587958170809302011F
:10023000898187708093030180910001882F90E06D
:10024000292F2F938F9386E191E0892F8F9386E159
:1002500091E08F930E940F020F900F900F900F90DC
:1002600080910101882F90E0292F2F938F9383E2B3
:1002700091E0892F8F9383E291E08F930E940F0288
:100280000F900F900F900F9080910201882F90E0B7
:10029000292F2F938F9380E391E0892F8F9380E311
:1002A00091E08F930E940F020F900F900F900F908C
:1002B00080910301882F90E0292F2F938F938DE356
:1002C00091E0892F8F938DE391E08F930E940F022D
:1002D0000F900F900F900F9080910101882F90E068
:1002E00080349105D1F181349105E4F58033910595
:1002F00079F181339105B4F58032910521F1813294
:10030000910584F5009719F04097C1F02BC08AE45D
:1003100091E00E9425028091C1019091C201BC012F
:1003200080E890E00E94DF018091C1019091C201BC
:10033000BC0180E890E00E94DF012CC087E591E0DD
:100340000E94250227C086E691E00E94250222C075
:1003500085E791E00E9425021DC086E891E00E9499
:10036000250218C080910101882F90E0292F2F933A
:100370008F938EE991E0892F8F938EE991E08F938F
:100380000E940F020F900F900F900F908FEF8093AD
:100390000101000000000F90DF91CF91FF91EF91DC
:1003A000BF91AF919F918F917F916F915F914F918D
:1003B0003F912F910F900FBE0F901F9018950F93A4
:1003C0001F93CF93DF93182F092FEB018B8181FDB2
:1003D00009C01FEF0FEF812F902FDF91CF911F9159
:1003E0000F91089582FF14C02E813F818C819D81E1
:1003F000281739073CF4E881F981CF0101969983E8
:10040000888310838E819F8101969F838E83E3CFA3
:10041000E885F985812F0995892BA1F3DACFB0E022
:10042000A0E0E5E1F2E00C94A004AE014B5F5F4F69
:10043000FA0161917191AF018091C1019091C20166
:100440000E945102E2E00C94BC040F931F93CF93DF
:10045000DF93E091C101F091C201238110E000E03F
:1004600021FD0EC00FEF1FEFC801DF91CF911F914B
:100470000F9108950995892B11F00FEF1FEFCE0111
:10048000EC0189916091C1017091C201DB01189664
:10049000ED91FC918111EECF8AE00995892B21F332
:1004A000E1CFABE0B0E0E7E5F2E00C9490047C0132
:1004B0003B018A01FC0117821682838181FFB9C149
:1004C0009AE0292ECE0101965C01F7019381F30198
:1004D00093FD859193FF81913F01882309F446C1E3
:1004E000853239F493FD859193FF81913F018532E7
:1004F00029F4B70190E00E94DF01E7CF912C412C55
:10050000512CFFE1F51538F08B3209F188F4803277
:1005100001F1833221F157FC3AC020ED280F2A3037
:1005200040F556FE1FC0929C200D1124922E06C04D
:100530008D3291F0803379F7689450F8F30193FD90
:10054000859193FF81913F018111DBCF20C0689499
:1005500051F8689452F8F2CF689453F8EFCF68944A
:1005600054F8ECCF429C200D1124422E689455F88B
:10057000E5CF8E3229F456FCF9C0689456F8DECFE8
:100580008C3619F4689457F8D9CF8836B9F2982F79
:100590009F7D95549330C0F08336A1F18337C1F12C
:1005A000833509F05BC0F801C190D1908F01692DAE
:1005B00070E056FC02C06FEF7FEFC6010E941C0482
:1005C0004C01689457F80AC00C5F1F4F2FE3298332
:1005D00088248394912C6501E89457F853FC04C057
:1005E0004814190409F018F5342C8114910431F5DC
:1005F000332009F46ACFB70180E290E00E94DF0166
:100600003A94F6CFF801808189830E5F1F4FE0CFC7
:10061000F801C190D1908F01692D70E056FC02C0A5
:100620006FEF7FEFC6010E9427044C01D5CFB701C1
:1006300080E290E00E94DF014A94D2CFF60157FC9D
:10064000859157FE81916F01B70190E00E94DF0113
:1006500031103A94F1E08F1A9108C7CF843619F01F
:10066000893609F074C0F80157FE6AC06191719132
:10067000819191918F01252D2F76D22E97FF09C060
:1006800090958095709561957F4F8F4F9F4F68949F
:10069000D7F82AE030E0A5010E943204C82ECA181B
:1006A0008C2C5D2CD6FE0CC0E89450F8C91440F494
:1006B000D4FE05C0D2FC03C0FD2DFE7E5F2E892C2A
:1006C00054FE8FC0FE01EC0DF11D8081803309F0D6
:1006D00081C0252D297E522E852D8870382E53FC01
:1006E0008FC050FE89C09C2C841418F44C0C942CA0
:1006F000981854FE8BC0B70180E390E00E94DF01A0
:1007000052FE09C088E790E051FE02C088E590E003
:10071000B7010E94DF01C91408F484C0CA94D12C27
:100720009FEFC91AD90ACA0CDB1CF60182916F012E
:10073000B70190E00E94DF01AC14BD04B1F758CFBF
:1007400061917191072E000C880B990B93CFD52CDA
:10075000E894D4F82AE030E0853739F1952D997F77
:10076000D92E8F3601F148F48835A9F0F70186813A
:1007700097812B96E2E10C94AC04803749F08837DE
:10078000A9F7D4FE02C06894D2F820E130E00DC091
:100790006894D4F8F6CF54FE03C0E92FE660DE2E4D
:1007A00020E132E002C028E030E0F801D7FE0DC0C1
:1007B00061917191819191918F01A5010E94320403
:1007C000C82ECA18E894D7F86BCF6191719190E068
:1007D00080E0F2CF52FC02C083947ECF8394839456
:1007E0007BCF852D867809F477CFF6CFB70180E2ED
:1007F00090E00E94DF0183948414C0F3312C79CF00
:10080000342C3818841408F474CFF8CF852D8678EA
:1008100009F481CF8BE251FE80E257FC8DE2B701F3
:1008200090E077CFB70180E390E00E94DF019A94D7
:1008300072CF8FEF9FEF9DCFFC010590615070400C
:100840000110D8F7809590958E0F9F1F0895FC0199
:100850006150704001900110D8F7809590958E0FEF
:100860009F1F0895FA01AA27283051F1203181F104
:10087000E8946F936E7F6E5F7F4F8F4F9F4FAF4FA8
:10088000B1E03ED0B4E03CD0670F781F891F9A1FBB
:10089000A11D680F791F8A1F911DA11D6A0F711D6F
:1008A000811D911DA11D20D009F468943F912AE07B
:1008B000269F11243019305D3193DEF6CF01089563
:1008C000462F4770405D4193B3E00FD0C9F7F6CF94
:1008D000462F4F70405D4A3318F0495D31FD40525C
:1008E000419302D0A9F7EACFB4E0A69597958795F2
:1008F00077956795BA95C9F70097610571050895D1
:100900009B01AC010A2E069457954795379527957C
:10091000BA95C9F7620F731F841F951FA01D089514
:100920002F923F924F925F926F927F928F929F92FF
:10093000AF92BF92CF92DF92EF92FF920F931F93ED
:10094000CF93DF93CDB7DEB7CA1BDB0B0FB6F8949E
:10095000DEBF0FBECDBF09942A88398848885F84DE
:100960006E847D848C849B84AA84B984C884DF804F
:10097000EE80FD800C811B81AA81B981CE0FD11D33
:100980000FB6F894DEBF0FBECDBFED010895F89409
:02099000FFCF97
:10099200FFFFFFFF6669726D776172650D00307847
:1009A2002532780D0A0052573A20307825303278B5
:1009B2000D0A0054203A203078253032780D0A0092
:1009C2004D203A203078253032780D0A0041203A05
:1009D200203078253032780D0A0048616E647368E1
:1009E200616B696E670D004772696420636F6E7494
:1009F200656E74730D0053657474696E6720636F5E
:100A02006C6F720D0053657474696E6720524742B1
:100A1200204C45440D0052656164696E67206D6526
:100A22006D6F727920616464726573730D00556E27
:100A32006B6E6F776E206D65737361676520747975
:0E0A420070653A203078253032780D0A0000B9
:00000001FF
